{
  "contractName": "Auth",
  "abi": [
    {
      "inputs": [],
      "stateMutability": "nonpayable",
      "type": "constructor"
    },
    {
      "inputs": [],
      "name": "nbOfUsers",
      "outputs": [
        {
          "internalType": "uint256",
          "name": "",
          "type": "uint256"
        }
      ],
      "stateMutability": "view",
      "type": "function",
      "constant": true
    },
    {
      "inputs": [],
      "name": "userIdCounter",
      "outputs": [
        {
          "internalType": "uint256",
          "name": "",
          "type": "uint256"
        }
      ],
      "stateMutability": "view",
      "type": "function",
      "constant": true
    },
    {
      "inputs": [
        {
          "internalType": "string",
          "name": "_signature",
          "type": "string"
        },
        {
          "internalType": "bytes32",
          "name": "_usernameHash",
          "type": "bytes32"
        },
        {
          "internalType": "bytes32",
          "name": "_emailHash",
          "type": "bytes32"
        },
        {
          "internalType": "bytes32",
          "name": "_passwordHash",
          "type": "bytes32"
        }
      ],
      "name": "register",
      "outputs": [],
      "stateMutability": "nonpayable",
      "type": "function"
    },
    {
      "inputs": [
        {
          "internalType": "uint256",
          "name": "userId",
          "type": "uint256"
        }
      ],
      "name": "getSignatureHash",
      "outputs": [
        {
          "internalType": "string",
          "name": "",
          "type": "string"
        }
      ],
      "stateMutability": "view",
      "type": "function",
      "constant": true
    },
    {
      "inputs": [
        {
          "internalType": "address",
          "name": "userAddress",
          "type": "address"
        }
      ],
      "name": "getUserIdsByAddress",
      "outputs": [
        {
          "internalType": "uint256[]",
          "name": "",
          "type": "uint256[]"
        }
      ],
      "stateMutability": "view",
      "type": "function",
      "constant": true
    },
    {
      "inputs": [],
      "name": "getAllUserIds",
      "outputs": [
        {
          "internalType": "uint256[]",
          "name": "",
          "type": "uint256[]"
        }
      ],
      "stateMutability": "view",
      "type": "function",
      "constant": true
    },
    {
      "inputs": [
        {
          "internalType": "string",
          "name": "_signature",
          "type": "string"
        }
      ],
      "name": "getUserIdByHash",
      "outputs": [
        {
          "internalType": "uint256",
          "name": "",
          "type": "uint256"
        }
      ],
      "stateMutability": "view",
      "type": "function",
      "constant": true
    },
    {
      "inputs": [
        {
          "internalType": "bytes32",
          "name": "_usernameHash",
          "type": "bytes32"
        }
      ],
      "name": "usernameExists",
      "outputs": [
        {
          "internalType": "bool",
          "name": "",
          "type": "bool"
        }
      ],
      "stateMutability": "view",
      "type": "function",
      "constant": true
    },
    {
      "inputs": [
        {
          "internalType": "bytes32",
          "name": "_emailHash",
          "type": "bytes32"
        }
      ],
      "name": "emailExists",
      "outputs": [
        {
          "internalType": "bool",
          "name": "",
          "type": "bool"
        }
      ],
      "stateMutability": "view",
      "type": "function",
      "constant": true
    },
    {
      "inputs": [
        {
          "internalType": "bytes32",
          "name": "_passwordHash",
          "type": "bytes32"
        }
      ],
      "name": "passwordExists",
      "outputs": [
        {
          "internalType": "bool",
          "name": "",
          "type": "bool"
        }
      ],
      "stateMutability": "view",
      "type": "function",
      "constant": true
    },
    {
      "inputs": [
        {
          "internalType": "uint256",
          "name": "userId",
          "type": "uint256"
        }
      ],
      "name": "getPasswordHash",
      "outputs": [
        {
          "internalType": "bytes32",
          "name": "",
          "type": "bytes32"
        }
      ],
      "stateMutability": "view",
      "type": "function",
      "constant": true
    },
    {
      "inputs": [
        {
          "internalType": "bytes32",
          "name": "_emailHash",
          "type": "bytes32"
        },
        {
          "internalType": "bytes32",
          "name": "_passwordHash",
          "type": "bytes32"
        },
        {
          "internalType": "address",
          "name": "_userAddress",
          "type": "address"
        }
      ],
      "name": "login",
      "outputs": [
        {
          "internalType": "bool",
          "name": "",
          "type": "bool"
        }
      ],
      "stateMutability": "view",
      "type": "function",
      "constant": true
    }
  ],
  "bytecode": "0x608060405234801561001057600080fd5b5060008081905550600180819055506114388061002e6000396000f3fe608060405234801561001057600080fd5b50600436106100b45760003560e01c8063348360fd11610071578063348360fd146101b55780635c9f751b146101e55780636530c430146102155780636f841e2e14610231578063be4906c914610261578063cc0ed1e31461027f576100b4565b806312679323146100b9578063158a5718146100d75780631e04c98514610107578063259018d114610137578063273b6551146101675780632faba6ae14610197575b600080fd5b6100c16102af565b6040516100ce9190611007565b60405180910390f35b6100f160048036038101906100ec9190610b82565b6102b5565b6040516100fe9190610f4f565b60405180910390f35b610121600480360381019061011c9190610cce565b6102df565b60405161012e9190610f85565b60405180910390f35b610151600480360381019061014c9190610c02565b610387565b60405161015e9190611007565b60405180910390f35b610181600480360381019061017c9190610b55565b610429565b60405161018e9190610f2d565b60405180910390f35b61019f6104c0565b6040516101ac9190611007565b60405180910390f35b6101cf60048036038101906101ca9190610b82565b6104c6565b6040516101dc9190610f4f565b60405180910390f35b6101ff60048036038101906101fa9190610b82565b6104f0565b60405161020c9190610f4f565b60405180910390f35b61022f600480360381019061022a9190610c4b565b61051a565b005b61024b60048036038101906102469190610baf565b610847565b6040516102589190610f4f565b60405180910390f35b61026961092f565b6040516102769190610f2d565b60405180910390f35b61029960048036038101906102949190610cce565b6109e3565b6040516102a69190610f6a565b60405180910390f35b60005481565b60006004600083815260200190815260200160002060009054906101000a900460ff169050919050565b6060600260008381526020019081526020016000206001018054610302906111b5565b80601f016020809104026020016040519081016040528092919081815260200182805461032e906111b5565b801561037b5780601f106103505761010080835404028352916020019161037b565b820191906000526020600020905b81548152906001019060200180831161035e57829003601f168201915b50505050509050919050565b600080600190505b60015481101561041e57826040516020016103aa9190610eff565b60405160208183030381529060405280519060200120600260008381526020019081526020016000206001016040516020016103e69190610f16565b60405160208183030381529060405280519060200120141561040b5780915050610424565b808061041690611218565b91505061038f565b50600090505b919050565b6060600360008373ffffffffffffffffffffffffffffffffffffffff1673ffffffffffffffffffffffffffffffffffffffff1681526020019081526020016000208054806020026020016040519081016040528092919081815260200182805480156104b457602002820191906000526020600020905b8154815260200190600101908083116104a0575b50505050509050919050565b60015481565b60006005600083815260200190815260200160002060009054906101000a900460ff169050919050565b60006006600083815260200190815260200160002060009054906101000a900460ff169050919050565b6004600084815260200190815260200160002060009054906101000a900460ff161561057b576040517f08c379a000000000000000000000000000000000000000000000000000000000815260040161057290610fc7565b60405180910390fd5b6005600083815260200190815260200160002060009054906101000a900460ff16156105dc576040517f08c379a00000000000000000000000000000000000000000000000000000000081526004016105d390610fa7565b60405180910390fd5b6006600082815260200190815260200160002060009054906101000a900460ff161561063d576040517f08c379a000000000000000000000000000000000000000000000000000000000815260040161063490610fe7565b60405180910390fd5b6040518060c0016040528060015481526020018581526020013373ffffffffffffffffffffffffffffffffffffffff168152602001848152602001838152602001828152506002600060015481526020019081526020016000206000820151816000015560208201518160010190805190602001906106bd929190610a03565b5060408201518160020160006101000a81548173ffffffffffffffffffffffffffffffffffffffff021916908373ffffffffffffffffffffffffffffffffffffffff160217905550606082015181600301556080820151816004015560a08201518160050155905050600360003373ffffffffffffffffffffffffffffffffffffffff1673ffffffffffffffffffffffffffffffffffffffff168152602001908152602001600020600154908060018154018082558091505060019003906000526020600020016000909190919091505560016004600085815260200190815260200160002060006101000a81548160ff02191690831515021790555060016005600084815260200190815260200160002060006101000a81548160ff02191690831515021790555060016006600083815260200190815260200160002060006101000a81548160ff0219169083151502179055506001600081548092919061082590611218565b919050555060008081548092919061083c90611218565b919050555050505050565b600080600190505b600154811015610922578460026000838152602001908152602001600020600401541480156108935750836002600083815260200190815260200160002060050154145b801561090057508273ffffffffffffffffffffffffffffffffffffffff166002600083815260200190815260200160002060020160009054906101000a900473ffffffffffffffffffffffffffffffffffffffff1673ffffffffffffffffffffffffffffffffffffffff16145b1561090f576001915050610928565b808061091a90611218565b91505061084f565b50600090505b9392505050565b606060006001805461094191906110ed565b67ffffffffffffffff81111561095a576109596112ee565b5b6040519080825280602002602001820160405280156109885781602001602082028036833780820191505090505b5090506000600190505b6001548110156109db5780826001836109ab91906110ed565b815181106109bc576109bb6112bf565b5b60200260200101818152505080806109d390611218565b915050610992565b508091505090565b600060026000838152602001908152602001600020600501549050919050565b828054610a0f906111b5565b90600052602060002090601f016020900481019282610a315760008555610a78565b82601f10610a4a57805160ff1916838001178555610a78565b82800160010185558215610a78579182015b82811115610a77578251825591602001919060010190610a5c565b5b509050610a859190610a89565b5090565b5b80821115610aa2576000816000905550600101610a8a565b5090565b6000610ab9610ab484611047565b611022565b905082815260208101848484011115610ad557610ad4611322565b5b610ae0848285611173565b509392505050565b600081359050610af7816113bd565b92915050565b600081359050610b0c816113d4565b92915050565b600082601f830112610b2757610b2661131d565b5b8135610b37848260208601610aa6565b91505092915050565b600081359050610b4f816113eb565b92915050565b600060208284031215610b6b57610b6a61132c565b5b6000610b7984828501610ae8565b91505092915050565b600060208284031215610b9857610b9761132c565b5b6000610ba684828501610afd565b91505092915050565b600080600060608486031215610bc857610bc761132c565b5b6000610bd686828701610afd565b9350506020610be786828701610afd565b9250506040610bf886828701610ae8565b9150509250925092565b600060208284031215610c1857610c1761132c565b5b600082013567ffffffffffffffff811115610c3657610c35611327565b5b610c4284828501610b12565b91505092915050565b60008060008060808587031215610c6557610c6461132c565b5b600085013567ffffffffffffffff811115610c8357610c82611327565b5b610c8f87828801610b12565b9450506020610ca087828801610afd565b9350506040610cb187828801610afd565b9250506060610cc287828801610afd565b91505092959194509250565b600060208284031215610ce457610ce361132c565b5b6000610cf284828501610b40565b91505092915050565b6000610d078383610ee1565b60208301905092915050565b6000610d1e8261109d565b610d2881856110c0565b9350610d3383611078565b8060005b83811015610d64578151610d4b8882610cfb565b9750610d56836110b3565b925050600181019050610d37565b5085935050505092915050565b610d7a81611133565b82525050565b610d898161113f565b82525050565b6000610d9a826110a8565b610da481856110d1565b9350610db4818560208601611182565b610dbd81611331565b840191505092915050565b6000610dd3826110a8565b610ddd81856110e2565b9350610ded818560208601611182565b80840191505092915050565b60008154610e06816111b5565b610e1081866110e2565b94506001821660008114610e2b5760018114610e3c57610e6f565b60ff19831686528186019350610e6f565b610e4585611088565b60005b83811015610e6757815481890152600182019150602081019050610e48565b838801955050505b50505092915050565b6000610e856014836110d1565b9150610e9082611342565b602082019050919050565b6000610ea86017836110d1565b9150610eb38261136b565b602082019050919050565b6000610ecb6012836110d1565b9150610ed682611394565b602082019050919050565b610eea81611169565b82525050565b610ef981611169565b82525050565b6000610f0b8284610dc8565b915081905092915050565b6000610f228284610df9565b915081905092915050565b60006020820190508181036000830152610f478184610d13565b905092915050565b6000602082019050610f646000830184610d71565b92915050565b6000602082019050610f7f6000830184610d80565b92915050565b60006020820190508181036000830152610f9f8184610d8f565b905092915050565b60006020820190508181036000830152610fc081610e78565b9050919050565b60006020820190508181036000830152610fe081610e9b565b9050919050565b6000602082019050818103600083015261100081610ebe565b9050919050565b600060208201905061101c6000830184610ef0565b92915050565b600061102c61103d565b905061103882826111e7565b919050565b6000604051905090565b600067ffffffffffffffff821115611062576110616112ee565b5b61106b82611331565b9050602081019050919050565b6000819050602082019050919050565b60008190508160005260206000209050919050565b600081519050919050565b600081519050919050565b6000602082019050919050565b600082825260208201905092915050565b600082825260208201905092915050565b600081905092915050565b60006110f882611169565b915061110383611169565b92508282101561111657611115611261565b5b828203905092915050565b600061112c82611149565b9050919050565b60008115159050919050565b6000819050919050565b600073ffffffffffffffffffffffffffffffffffffffff82169050919050565b6000819050919050565b82818337600083830152505050565b60005b838110156111a0578082015181840152602081019050611185565b838111156111af576000848401525b50505050565b600060028204905060018216806111cd57607f821691505b602082108114156111e1576111e0611290565b5b50919050565b6111f082611331565b810181811067ffffffffffffffff8211171561120f5761120e6112ee565b5b80604052505050565b600061122382611169565b91507fffffffffffffffffffffffffffffffffffffffffffffffffffffffffffffffff82141561125657611255611261565b5b600182019050919050565b7f4e487b7100000000000000000000000000000000000000000000000000000000600052601160045260246000fd5b7f4e487b7100000000000000000000000000000000000000000000000000000000600052602260045260246000fd5b7f4e487b7100000000000000000000000000000000000000000000000000000000600052603260045260246000fd5b7f4e487b7100000000000000000000000000000000000000000000000000000000600052604160045260246000fd5b600080fd5b600080fd5b600080fd5b600080fd5b6000601f19601f8301169050919050565b7f456d61696c20616c726561647920657869737473000000000000000000000000600082015250565b7f557365726e616d6520616c726561647920657869737473000000000000000000600082015250565b7f444e4920616c7265616479206578697374730000000000000000000000000000600082015250565b6113c681611121565b81146113d157600080fd5b50565b6113dd8161113f565b81146113e857600080fd5b50565b6113f481611169565b81146113ff57600080fd5b5056fea264697066735822122025bd30e594749ec21ceb840ec8d359a9413b73b861aac1b9430f73593edeb1cb64736f6c63430008060033",
  "immutableReferences": {},
  "source": "// SPDX-License-Identifier: MIT\r\npragma solidity 0.8.6;\r\n\r\ncontract Auth {\r\n    uint256 public nbOfUsers;\r\n    uint256 public userIdCounter;\r\n\r\n    struct User {\r\n        uint256 userId;\r\n        string signatureHash;\r\n        address userAddress;\r\n        bytes32 usernameHash;\r\n        bytes32 emailHash;\r\n        bytes32 passwordHash;\r\n    }\r\n\r\n    mapping(uint256 => User) private users;\r\n    mapping(address => uint256[]) private userIdsByAddress;\r\n    mapping(bytes32 => bool) private usernameExistsMapping;\r\n    mapping(bytes32 => bool) private emailExistsMapping;\r\n    mapping(bytes32 => bool) private passwordExistsMapping;\r\n\r\n    constructor() {\r\n        nbOfUsers = 0;\r\n        userIdCounter = 1;\r\n    }\r\n\r\n    function register(string memory _signature, bytes32 _usernameHash, bytes32 _emailHash, bytes32 _passwordHash) public {\r\n        require(!usernameExistsMapping[_usernameHash], \"Username already exists\");\r\n        require(!emailExistsMapping[_emailHash], \"Email already exists\");\r\n        require(!passwordExistsMapping[_passwordHash], \"DNI already exists\");\r\n\r\n\r\n        users[userIdCounter] = User({\r\n            userId: userIdCounter,\r\n            signatureHash: _signature,\r\n            userAddress: msg.sender,\r\n            usernameHash: _usernameHash,\r\n            emailHash: _emailHash,\r\n            passwordHash: _passwordHash\r\n        });\r\n        userIdsByAddress[msg.sender].push(userIdCounter);\r\n        usernameExistsMapping[_usernameHash] = true;\r\n        emailExistsMapping[_emailHash] = true;\r\n        passwordExistsMapping[_passwordHash] = true;\r\n        userIdCounter++;\r\n        nbOfUsers++;\r\n    }\r\n\r\n    function getSignatureHash(uint256 userId) public view returns (string memory) {\r\n        return users[userId].signatureHash;\r\n    }\r\n\r\n    function getUserIdsByAddress(address userAddress) public view returns (uint256[] memory) {\r\n        return userIdsByAddress[userAddress];\r\n    }\r\n\r\n    function getAllUserIds() public view returns (uint256[] memory) {\r\n        uint256[] memory ids = new uint256[](userIdCounter - 1);\r\n        for (uint256 i = 1; i < userIdCounter; i++) {\r\n            ids[i - 1] = i;\r\n        }\r\n        return ids;\r\n    }\r\n\r\n    function getUserIdByHash(string memory _signature) public view returns (uint256) {\r\n        for (uint256 i = 1; i < userIdCounter; i++) {\r\n            if (keccak256(abi.encodePacked(users[i].signatureHash)) == keccak256(abi.encodePacked(_signature))) {\r\n                return i;\r\n            }\r\n        }\r\n        return 0; // return 0 if no matching user is found\r\n    }\r\n\r\n    function usernameExists(bytes32 _usernameHash) public view returns (bool) {\r\n        return usernameExistsMapping[_usernameHash];\r\n    }\r\n\r\n    function emailExists(bytes32 _emailHash) public view returns (bool) {\r\n        return emailExistsMapping[_emailHash];\r\n    }\r\n\r\n\r\n    function passwordExists(bytes32 _passwordHash) public view returns (bool) {\r\n        return passwordExistsMapping[_passwordHash];\r\n    }\r\n\r\n    function getPasswordHash(uint256 userId) public view returns (bytes32) {\r\n        return users[userId].passwordHash;\r\n    }\r\n\r\n    function login(bytes32 _emailHash, bytes32 _passwordHash, address _userAddress) public view returns (bool) {\r\n        for (uint256 i = 1; i < userIdCounter; i++) {\r\n            if (users[i].emailHash == _emailHash && users[i].passwordHash == _passwordHash && users[i].userAddress == _userAddress) {\r\n                return true;\r\n            }\r\n        }\r\n        return false;\r\n    }\r\n}\r\n",
  "sourcePath": "C:\\Users\\Ricardo\\Desktop\\yo\\contracts\\Auth.sol",
  "compiler": {
    "name": "solc",
    "version": "0.8.6+commit.11564f7e.Emscripten.clang"
  },
  "schemaVersion": "3.4.16",
  "updatedAt": "2024-07-01T00:44:48.091Z",
  "networkType": "ethereum",
  "devdoc": {
    "kind": "dev",
    "methods": {},
    "version": 1
  },
  "userdoc": {
    "kind": "user",
    "methods": {},
    "version": 1
  }
}